:100000000C9446000C945D000C945D000C945D0013
:100010000C945D000C945D000C945D000C945D00EC
:100020000C945D000C945D000C945D000C945D00DC
:100030000C945D000C945D000C945D000C945D00CC
:100040000C945D000C945D000C945D000C945D00BC
:100050000C945D000C945D000C945D000C945D00AC
:100060000C945D000C945D000C945D000C945D009C
:100070000C945D000C945D000C945D000C945D008C
:100080000C945D000C945D000C945D0011241FBE67
:10009000CFEFD0E4DEBFCDBF11E0A0E0B1E0ECE6F1
:1000A000F8E000E00BBF02C007900D92A632B10746
:1000B000D9F70E9414010C9434040C94000011B878
:1000C00087E880937A0080E480937C0008958770AD
:1000D000806480937C00EAE7F0E080818064808324
:1000E00080917A0084FFFCCFEAE7F0E080818061B4
:1000F00080832091780090917900892F90E0982F4B
:100100008827820F911D089588B98BB18F798BB99B
:100110008BB180688BB982E08A95F1F700C08BB112
:100120008F778BB98FE697E10197F1F700C0000058
:10013000089588B98BB18F7B8BB98BB1806A8BB9ED
:1001400082E08A95F1F700C08BB18F778BB98FEC85
:1001500097E00197F1F700C0000008958AB1806E22
:100160008AB98FEF87B98FE39CE90197F1F700C057
:10017000000088E30E9484008CE00E94840086E0F6
:100180000E94840081E00E94840080E80E94840034
:1001900008950F931F93CF93DF93082F192FD0E06B
:1001A000C0E0F801EC0FFD1F8081882321F00E9440
:1001B00099002196F6CFDF91CF911F910F9108956D
:1001C000CF93DF93D42FC52F813049F0823069F06F
:1001D0008D2F9C2F0E94C900DF91CF9108956F70E1
:1001E000862F80680E948400F3CF6F70862F806C0A
:1001F0000E948400EDCF81E00E94840080E80E948C
:1002000084000895CF93C82F8A3051F09091C00098
:1002100095FFFCCFC093C60090E080E0CF91089599
:100220008DE00E940201F2CFCDB7DEB764970FB622
:10023000F894DEBF0FBECDBF0E945F000E94AE00EB
:1002400080E00E9467009F938F938EE091E09F93E0
:100250008F938E010F5F1F4F1F930F930E945F01BB
:10026000A80160E081E00E94E00081E00E94670058
:100270009F938F9386E191E09F938F931F930F93AA
:100280000E945F01A80168E081E00E94E00082E036
:100290000E9467009F938F938EE191E09F938F93CD
:1002A0001F930F930E945F01A80160E082E00E940B
:1002B000E0000FB6F894DEBF0FBECDBFC1CF0F93E5
:1002C0001F93CF93DF93CDB7DEB72E970FB6F89479
:1002D000DEBF0FBECDBF0D891E8986E08C831A83D9
:1002E00009838FEF9FE79E838D83AE01475E5F4F4B
:1002F0006F89788DCE0101960E948F012F813885FC
:10030000020F131FF80110822E960FB6F894DEBF6D
:100310000FBECDBFDF91CF911F910F9108952F9206
:100320003F924F925F926F927F928F929F92AF9285
:10033000BF92CF92DF92EF92FF920F931F93CF93D2
:10034000DF93CDB7DEB72F970FB6F894DEBF0FBEA1
:10035000CDBF7C013B018A01DC0117961C921E92E5
:10036000169713968C9181FFD8C19AE0292EFE0131
:1003700031964F01D70113969C91F30193FD85911E
:1003800093FF81913F01882309F448C1853239F4F4
:1003900093FD859193FF81913F01853229F4B70147
:1003A00090E00E94A603E6CFB12C412C512CBFE176
:1003B000B51538F08B3209F188F4803201F18332BF
:1003C00021F157FC3AC020ED280F2A3040F556FEA7
:1003D0001FC0B29C200D1124B22E06C08D3291F0A8
:1003E000803379F7689450F8F30193FD859193FF7A
:1003F00081913F018111DBCF20C0689451F868944E
:1004000052F8F2CF689453F8EFCF689454F8ECCFD9
:10041000429C200D1124422E689455F8E5CF8E326F
:1004200029F456FCFBC0689456F8DECF8C3619F4DC
:10043000689457F8D9CF8836B9F2982F9F7D955494
:100440009330C0F08336A1F18337C1F1833509F0D1
:100450005BC0D801CD90DD908D016B2D70E056FC16
:1004600002C06FEF7FEFC6010E9490035C016894A9
:1004700057F80AC00C5F1F4FEFE3E983AA24A39447
:10048000B12C6401E89457F853FC04C04A141B04CF
:1004900009F018F5342CA114B10431F5332009F416
:1004A00069CFB70180E290E00E94A6033A94F6CFAC
:1004B000D8018C9189830E5F1F4FE0CFF801C19066
:1004C000D1908F016B2D70E056FC02C06FEF7FEF73
:1004D000C6010E949B035C01D5CFB70180E290E08A
:1004E0000E94A6034A94D2CFF60157FC859157FE8D
:1004F00081916F01B70190E00E94A60331103A94F8
:10050000B1E0AB1AB108C7CF843619F0893609F0CB
:1005100074C0F80157FE6AC0619171918191919107
:100520008F01E52DEF76DE2E97FF09C0909580951F
:10053000709561957F4F8F4F9F4F6894D7F82AE051
:1005400030E0A4010E94D603C82EC818AC2C5D2C44
:10055000D6FE0CC0E89450F8CB1440F4D4FE05C08D
:10056000D2FC03C05D2D5E7E552EAB2C54FEADC07B
:10057000FE01EC0DF11D8081803309F09FC0652DD7
:10058000697E562E752D7870372E53FCADC050FE07
:10059000A7C0BC2CA41418F44C0CB42CBA1854FEEC
:1005A000A9C0B70180E390E00E94A60352FE09C0F3
:1005B00088E790E051FE02C088E590E0B7010E9414
:1005C000A603CB1408F4A2C0CA94D12C8FEFC81A8A
:1005D000D80AC80CD91CD6018E916D01B70190E0E4
:1005E0000E94A6038C149D04B1F758CF61917191BC
:1005F000072E000C880B990B93CFD52CE894D4F8D8
:100600002AE030E08537E1F1F52DF97FDF2E8037E4
:1006100051F100F5883551F18F3681F1F70186816E
:1006200097812F960FB6F894DEBF0FBECDBFDF9136
:10063000CF911F910F91FF90EF90DF90CF90BF90DF
:10064000AF909F908F907F906F905F904F903F9072
:100650002F900895883711F7D4FE02C06894D2F81D
:1006600020E130E00DC06894D4F8F6CF54FE03C00A
:100670002F2F2660D22E20E132E002C028E030E0A9
:10068000F801D7FE15C041915191619171914C874C
:100690005D876E877F878F01A4016C857D858E8540
:1006A0009F850E94D603C82EC818E894D7F84ECF6D
:1006B00081919191AC0170E060E0E9CF52FC02C001
:1006C000A39460CFA394A3945DCF852D867809F47D
:1006D00059CFF6CFB70180E290E00E94A603A39421
:1006E000A414C0F3312C5BCF342C3A18A41408F4B2
:1006F00056CFF8CF852D867809F463CF8BE251FE73
:1007000080E257FC8DE2B70190E059CFB70180E35A
:1007100090E00E94A603BA9454CF8FEF9FEF81CF51
:10072000FC010590615070400110D8F780959095BC
:100730008E0F9F1F0895FC016150704001900110C1
:10074000D8F7809590958E0F9F1F08950F931F9354
:10075000CF93DF93182F092FEB018B8181FD09C007
:100760001FEF0FEF812F902FDF91CF911F910F91EE
:10077000089582FF14C02E813F818C819D812817AE
:1007800039073CF4E881F981CF0101969983888388
:1007900010838E819F8101969F838E83E3CFE885AE
:1007A000F985812F0995892BA1F3DACFFA01AA27C0
:1007B000283051F1203181F1E8946F936E7F6E5FA4
:1007C0007F4F8F4F9F4FAF4FB1E03ED0B4E03CD052
:1007D000670F781F891F9A1FA11D680F791F8A1F35
:1007E000911DA11D6A0F711D811D911DA11D20D09C
:1007F00009F468943F912AE0269F11243019305D56
:100800003193DEF6CF010895462F4770405D419346
:10081000B3E00FD0C9F7F6CF462F4F70405D4A3393
:1008200018F0495D31FD4052419302D0A9F7EACF5B
:10083000B4E0A6959795879577956795BA95C9F78A
:1008400000976105710508959B01AC010A2E06947D
:100850005795479537952795BA95C9F7620F731F36
:0C086000841F951FA01D0895F894FFCF81
:10086C000000000200000000020100000000583DE2
:10087C00256420202000593D2564202020005A3D6D
:06088C002564202020007D
:00000001FF
